:020000040800F2
:10000000000001209D020008ED020008ED0200083A
:10001000ED020008ED020008ED02000800000000FB
:10002000000000000000000000000000ED020008D9
:10003000ED02000800000000ED020008ED020008DB
:10004000ED020008ED020008ED020008ED020008D4
:10005000ED020008ED020008ED020008ED020008C4
:10006000ED020008ED020008ED020008ED020008B4
:10007000ED020008ED020008ED020008ED020008A4
:10008000ED020008ED020008ED020008000000008B
:10009000000000000000000000000000ED02000869
:1000A000ED020008ED020008ED020008ED02000874
:1000B000ED020008ED020008ED020008ED02000864
:1000C000ED020008ED020008ED020008ED02000854
:1000D000ED020008ED020008ED020008000000003B
:1000E000ED020008ED020008ED020008000000002B
:1000F000000000000000000000000000ED02000809
:1001000000000000ED020008ED020008ED0200080A
:1001100000000000000000000000000000000000DF
:10012000ED020008ED020008ED020008ED020008F3
:10013000ED020008000000000000000000000000C8
:10014000000000000000000000000000ED020008B8
:10015000ED020008ED020008ED020008ED020008C3
:10016000ED020008ED0200080000000000000000A1
:10017000000000000000000000000000000000007F
:1001800000000000ED020008000000000000000078
:04019000ED02000874
:1001940010B5054C237833B9044B13B10448AFF3BD
:1001A40000800123237010BD000000200000000027
:1001B400E805000808B5034B1BB103490348AFF336
:1001C400008008BD0000000004000020E8050008CD
:1001D40080B588B000AF254A3B4607CA03C31A80DE
:1001E400002301220021422000F080F80023BB619B
:1001F40008E0B96900230122422000F077F8BB69C6
:100204000133BB61BB69062BF3DD0023FB6129E0ED
:100214003A46FB6913441B783B610023BB6111E040
:100224000122BB699A403B691A40BB6942FA03F355
:10023400FB60BB69FA681946422000F039F9BB69D2
:100244000133BB61BB69062BEADD00237B6102E05D
:100254007B6901337B617B69054A9342F8DDFB6965
:100264000133FB61FB69092BD2DDCEE700060008F0
:100274001FA1070080B400AF064BD3F88830054AAD
:1002840043F47003C2F8883000BFBD465DF8047BB8
:10029400704700BF00ED00E0DFF834D00D480E4990
:1002A4000E4A002302E0D458C4500433C4188C42CC
:1002B400F9D30B4A0B4C002301E013600432A24231
:1002C400FBD3FFF7D7FF00F069F9FFF781FF704711
:1002D4000000012000000020000000201406000897
:1002E400000000201C000020FEE7000080B485B060
:1002F40000AFB9607A603B600346FB73FB7B412B24
:1003040002D0422B64D0C7E0664B1B6B654A43F0B6
:10031400010313637B68032B3BD801A252F823F03B
:10032400350300084F030008670300087F03000833
:100334005D4B1B68BA685200032101FA02F2D243F2
:100344001146594A0B40136023E0574B1B68BA68A7
:100354005200012101FA02F21146534A0B43136081
:1003640017E0514B1B68BA685200022101FA02F2ED
:1003740011464D4A0B4313600BE04B4B1B68BA68A4
:100384005200032101FA02F21146474A0B4313605B
:1003940000BF3B68002B03D03B68012B0CD07BE0F3
:1003A400414B5B680121BA6801FA02F2D24311465B
:1003B4003D4A0B4053600AE03B4B5B680121BA683D
:1003C40001FA02F21146384A0B43536000BF63E05E
:1003D400344B1B6B334A43F0020313637B68032BD8
:1003E4003BD801A252F823F0FD03000817040008CB
:1003F4002F040008470400082C4B1B68BA685200FD
:10040400032101FA02F2D2431146284A0B40136039
:1004140023E0264B1B68BA685200012101FA02F25C
:100424001146224A0B43136017E0204B1B68BA683D
:100434005200022101FA02F211461C4A0B431360D6
:100444000BE01A4B1B68BA685200032101FA02F24E
:100454001146164A0B43136000BF3B68002B03D0C0
:100464003B68012B0CD016E0104B5B680121BA6885
:1004740001FA02F2D24311460C4A0B4053600AE0DF
:100484000A4B5B680121BA6801FA02F21146074A75
:100494000B43536000BF00BF00BF1437BD465DF877
:1004A400047B704700380240000002400004024010
:1004B40080B487B000AF0346B9607A60FB73FB7BFE
:1004C400412B02D0422B2DD05CE0324B1B68BA6822
:1004D4005200032101FA02F21A40BB685B0022FABF
:1004E40003F3012B1BD17B68002B0AD0294B5B69DA
:1004F4000121BA6801FA02F21146264A0B435361FC
:100504000AE0244B5B690121BA6801FA02F2D24382
:100514001146204A0B4053610023FB7532E001234E
:10052400FB752FE01C4B1B68BA685200032101FACB
:1005340002F21A40BB685B00DA40BB685B0022FA37
:1005440003F3012B1BD17B68002B0AD0124B5B6990
:100554000121BA6801FA02F211460F4A0B435361B2
:100564000AE00D4B5B690121BA6801FA02F2D24339
:100574001146094A0B4053610023FB7501E0012336
:10058400FB7500BFFB7D18461C37BD465DF8047B38
:10059400704700BF000002400004024070B50D4DDA
:1005A4000D4C641BA4100026A64209D10B4D0C4C23
:1005B40000F018F8641BA4100026A64205D170BDF3
:1005C40055F8043B98470136EEE755F8043B984745
:1005D4000136F2E70C0600080C0600080C060008B9
:1005E40010060008F8B500BFF8BC08BC9E4670476A
:0C05F400F8B500BFF8BC08BC9E4670477C
:0C0600003F065B4F666D7D077F6F0000BA
:04060C00B901000828
:040610009501000848
:040000050800029D50
:00000001FF
