:020000040800F2
:100000000000012091060008190600081F060008DC
:10001000250600082B060008310600080000000035
:10002000000000000000000000000000370600088B
:10003000450600080000000053060008610600089D
:10004000E1060008E1060008E1060008E1060008F4
:10005000E1060008E106000871050008C505000872
:10006000E1060008E1060008E1060008E1060008D4
:10007000E1060008E1060008E1060008E1060008C4
:10008000E1060008E1060008E106000800000000A3
:10009000000000000000000000000000E106000871
:1000A000E1060008E1060008E1060008E106000894
:1000B000E1060008E1060008E1060008E106000884
:1000C000E1060008E1060008E1060008E106000874
:1000D000E1060008E1060008E10600080000000053
:1000E000E1060008E1060008E10600080000000043
:1000F000000000000000000000000000E106000811
:1001000000000000E1060008E1060008E106000822
:1001100000000000000000000000000000000000DF
:10012000E1060008E1060008E1060008E106000813
:10013000E1060008000000000000000000000000D0
:10014000000000000000000000000000E1060008C0
:10015000E1060008E1060008E1060008E1060008E3
:10016000E1060008E10600080000000000000000B1
:10017000000000000000000000000000000000007F
:1001800000000000E1060008000000000000000080
:04019000E10600087C
:1001940010B5054C237833B9044B13B10448AFF3BD
:1001A40000800123237010BD100000200000000017
:1001B4005407000808B5034B1BB103490348AFF3C8
:1001C400008008BD0000000014000020540700084F
:1001D40080B483B000AF0346FB71FB79412B02D09E
:1001E400422B07D00DE00A4B1B6B094A43F0010375
:1001F400136306E0064B1B6B054A43F002031363CB
:1002040000BF00BF0C37BD465DF8047B704700BFDC
:100214000038024090B482B000AF0446084611464C
:100224001A462346FB710346BB710B467B7113468A
:100234003B71FB79412B02D0422B49D091E04B4BCF
:100244001B68BA795200032101FA02F2D243114623
:10025400464A0B401360454B1B687979BA795200C2
:1002640001FA02F21146414A0B4313603F4B5B68AB
:10027400BA79012101FA02F2D24311463B4A0B40FA
:1002840053603A4B5B683A7902F00101BA7901FA9A
:1002940002F21146354A0B435360344BDB68BA799A
:1002A4005200032101FA02F2D24311462F4A0B40B5
:1002B400D3602E4BDB683A79521002F00301BA790D
:1002C400520001FA02F21146284A0B43D36048E077
:1002D400274B1B68BA795200032101FA02F2D24378
:1002E4001146234A0B401360214B1B687979BA7974
:1002F400520001FA02F211461D4A0B4313601C4BD3
:100304005B68BA79012101FA02F2D2431146184A14
:100314000B405360164B5B683A7902F00101BA79DD
:1003240001FA02F21146124A0B435360104BDB6888
:10033400BA795200032101FA02F2D24311460C4A5F
:100344000B40D3600A4BDB683A79521002F0030188
:10035400BA79520001FA02F21146054A0B43D360FE
:1003640000BF00BF0837BD4690BC70470000024084
:100374000004024080B485B000AF0346FB710B4615
:10038400BB7113467B71FB79412B02D0422B2DD0DC
:1003940059E0324B1B68BA795200032101FA02F288
:1003A4001A40BB795B0022FA03F3012B1BD17B7942
:1003B400002B0AD0294B5B69BA79012101FA02F2B8
:1003C4001146264A0B4353610AE0244B5B69BA7910
:1003D400012101FA02F2D2431146204A0B40536133
:1003E4000023FB7332E00123FB732FE01C4B1B68DB
:1003F400BA795200032101FA02F21A40BB795B0078
:1004040022FA03F3012B1BD17B79002B0AD0144B66
:100414005B69BA79012101FA02F21146104A0B43D1
:1004240053610AE00E4B5B69BA79012101FA02F2C9
:10043400D24311460A4A0B4053610023FB7305E083
:100444000123FB7302E00123FB7300BFFB7B18460F
:100454001437BD465DF8047B704700BF00000240BE
:100464000004024080B582B000AF4220FFF7B0FE26
:100474004120FFF7ADFE0223002200214120FFF7B7
:10048400C9FE0223002201214120FFF7C3FE2F4BA6
:100494001B682E4A43F4804313602D4B00221A60DC
:1004A4002C4B1B682B4A43F0010313602A4B1B6837
:1004B400294A43F001031360284B1B68274A43F081
:1004C40040031360234B1B68224A43F0020313606A
:1004D400234B00221A60204B1B681F4A43F002037F
:1004E40013601E4B1B681D4A43F0800313600023F6
:1004F4007B6009E07B68D9B2002301224220FFF728
:1005040089FE7B6801337B607B68062BF2DD002368
:100514003B6017E03B68D9B2124B1B68124AD35CAC
:10052400184601223B6802FA03F300EA03023B681F
:1005340042FA03F3DBB21A464220FFF71BFF3B6883
:1005440001333B603B68062BE4DDE0E744380240BE
:1005540008380140003C01400C3C014000E100E04F
:10056400083C0140000000200400002080B400AFDB
:100574000F4B1B680E4A43F0800313600D4B1B683E
:100584000C4A43F0010313600B4B1B68082B04D87F
:10059400094B1B680133084A1360084B1B68074A60
:1005A40043F08003136000BFBD465DF8047B7047D1
:1005B40080E100E0143C01400000002000E100E084
:1005C40080B400AF0F4B1B680E4A43F04003136026
:1005D4000D4B1B680C4A43F0020313600B4B1B6862
:1005E400002B04D0094B1B68013B084A1360084BDD
:1005F4001B68074A43F04003136000BFBD465DF823
:10060400047B704780E100E0143C014000000020BE
:1006140000E100E080B400AFFEE780B400AFFEE785
:1006240080B400AFFEE780B400AFFEE780B400AF53
:10063400FEE780B400AF00BFBD465DF8047B7047A1
:1006440080B400AF00BFBD465DF8047B704780B442
:1006540000AF00BFBD465DF8047B704780B500AFB6
:1006640000F03EF800BF80BD80B400AF064BD3F865
:100674008830054A43F47003C2F8883000BFBD4691
:100684005DF8047B704700BF00ED00E0DFF834D074
:100694000D480E490E4A002302E0D458C4500433D6
:1006A400C4188C42F9D30B4A0B4C002301E01360AD
:1006B4000432A242FBD3FFF7D7FF00F025F8FFF77F
:1006C400D1FE70470000012000000020100000202F
:1006D400740700081000002030000020FEE700002E
:1006E40080B400AF064B1B781A46064B1B681344B4
:1006F400044A136000BFBD465DF8047B704700BF29
:100704000E0000202C00002070B50D4D0D4C641B14
:10071400A4100026A64209D10B4D0C4C00F018F889
:10072400641BA4100026A64205D170BD55F8043BF5
:1007340098470136EEE755F8043B98470136F2E74F
:100744006C0700086C0700086C07000870070008B5
:10075400F8B500BFF8BC08BC9E467047F8B500BFAA
:08076400F8BC08BC9E4670477A
:04076C00B9010008C7
:0407700095010008E7
:10077400030000003F065B4F666D7D077F6F01003D
:040000050800069158
:00000001FF
