:020000040800F2
:1000000000000120BD0600080D0700080D070008CC
:100010000D0700080D0700080D070008000000008C
:100020000000000000000000000000000D070008B4
:100030000D070008000000000D0700080D0700086C
:100040000D0700080D0700080D0700080D07000840
:100050000D0700080D0700080D0700080D07000830
:100060000D0700080D0700080D0700080D07000820
:100070000D0700080D0700080D0700080D07000810
:100080000D0700080D0700080D070008000000001C
:100090000000000000000000000000000D07000844
:1000A0000D0700080D0700080D0700080D070008E0
:1000B0000D0700080D0700080D0700080D070008D0
:1000C0000D0700080D0700080D0700080D070008C0
:1000D0000D0700080D0700080D07000800000000CC
:1000E0000D0700080D0700080D07000800000000BC
:1000F0000000000000000000000000000D070008E4
:10010000000000000D0700080D0700080D0700089B
:1001100000000000000000000000000000000000DF
:100120000D0700080D0700080D0700080D0700085F
:100130000D070008000000000000000000000000A3
:100140000000000000000000000000000D07000893
:100150000D0700080D0700080D0700080D0700082F
:100160000D0700080D070008000000000000000057
:10017000000000000000000000000000000000007F
:10018000000000000D070008000000000000000053
:040190000D0700084F
:1001940010B5054C237833B9044B13B10448AFF3BD
:1001A40000800123237010BD0C000020000000001B
:1001B4005807000808B5034B1BB103490348AFF3C4
:1001C400008008BD0000000010000020580700084F
:1001D40080B483B000AF0346FB71FB79412B02D09E
:1001E400422B07D00DE00A4B1B6B094A43F0010375
:1001F400136306E0064B1B6B054A43F002031363CB
:1002040000BF00BF0C37BD465DF8047B704700BFDC
:100214000038024090B482B000AF0446084611464C
:100224001A462346FB710346BB710B467B7113468A
:100234003B71FB79412B02D0422B49D091E04B4BCF
:100244001B68BA795200032101FA02F2D243114623
:10025400464A0B401360454B1B687979BA795200C2
:1002640001FA02F21146414A0B4313603F4B5B68AB
:10027400BA79012101FA02F2D24311463B4A0B40FA
:1002840053603A4B5B683A7902F00101BA7901FA9A
:1002940002F21146354A0B435360344BDB68BA799A
:1002A4005200032101FA02F2D24311462F4A0B40B5
:1002B400D3602E4BDB683A79521002F00301BA790D
:1002C400520001FA02F21146284A0B43D36048E077
:1002D400274B1B68BA795200032101FA02F2D24378
:1002E4001146234A0B401360214B1B687979BA7974
:1002F400520001FA02F211461D4A0B4313601C4BD3
:100304005B68BA79012101FA02F2D2431146184A14
:100314000B405360164B5B683A7902F00101BA79DD
:1003240001FA02F21146124A0B435360104BDB6888
:10033400BA795200032101FA02F2D24311460C4A5F
:100344000B40D3600A4BDB683A79521002F0030188
:10035400BA79520001FA02F21146054A0B43D360FE
:1003640000BF00BF0837BD4690BC70470000024084
:100374000004024080B485B000AF0346FB710B4615
:10038400BB7113467B71FB79412B02D0422B2DD0DC
:1003940059E0324B1B68BA795200032101FA02F288
:1003A4001A40BB795B0022FA03F3012B1BD17B7942
:1003B400002B0AD0294B5B69BA79012101FA02F2B8
:1003C4001146264A0B4353610AE0244B5B69BA7910
:1003D400012101FA02F2D2431146204A0B40536133
:1003E4000023FB7332E00123FB732FE01C4B1B68DB
:1003F400BA795200032101FA02F21A40BB795B0078
:1004040022FA03F3012B1BD17B79002B0AD0144B66
:100414005B69BA79012101FA02F21146104A0B43D1
:1004240053610AE00E4B5B69BA79012101FA02F2C9
:10043400D24311460A4A0B4053610023FB7305E083
:100444000123FB7302E00123FB7300BFFB7B18460F
:100454001437BD465DF8047B704700BF00000240BE
:100464000004024080B485B000AF03460A46FB7125
:100474001346BB710023FB73FB79412B02D0422B43
:100484000CD017E00F4B1B69BA79012101FA02F273
:100494001A40BB7922FA03F3FB730BE00A4B1B6986
:1004A400BA79012101FA02F21A40BB7922FA03F364
:1004B400FB7300BFFB7B18461437BD465DF8047B15
:1004C400704700BF000002400004024080B582B0C3
:1004D40000AF4220FFF77CFE00237B6009E07B68CD
:1004E400D9B2022300224220FFF794FE7B68013335
:1004F4007B607B68032BF2DD05233B6010E03B68E7
:10050400D9B2002301224220FFF784FE3B68DBB20C
:10051400012219464220FFF72DFF3B6801333B605F
:100524003B68072BEBDD00BF00BF0837BD4680BD2D
:1005340080B584B000AF0523BB6051E0BB68DBB27B
:10054400002219464220FFF715FF0023FB6037E025
:10055400FB68DBB219464220FFF784FF0346002BF9
:100564002BD100237B6002E07B6801337B607B68D6
:1005740047F22F529342F7DDFB68DBB21946422063
:10058400FFF770FF0346002B17D1BB68591F1848AB
:10059400FA6813465B00134403440B441A78154B62
:1005A4001A7000F029F800BFFB68DBB2194642203C
:1005B400FFF758FF0346002BF6D0FB680133FB60BE
:1005C400FB68032BC4DDBB68DBB201221946422061
:1005D400FFF7D0FE074B7F221A70BB680133BB6064
:1005E400BB68072BAADD00BF00BF1037BD4680BD26
:1005F400000000202800002080B584B000AF1F4A0E
:100604003B1D07CA03C31A804120FFF7E1FD002305
:10061400FB7308E0F97B002301224120FFF7FAFD78
:10062400FB7B0133FB73FB7B062BF3D9144B1B7849
:100634007F2B1FD00023FB7319E0114B1B7807F1AC
:100644001002134413F80C3C1946FB7B012202FAF6
:1006540003F301EA0302FB7B42FA03F3DAB2FB7B06
:1006640019464120FFF786FEFB7B0133FB73FB7BBE
:10067400062BE2D900BF1037BD4680BD70070008C5
:100684002800002080B500AFFFF720FFFFF750FFE0
:10069400FCE7000080B400AF064BD3F88830054A6D
:1006A40043F47003C2F8883000BFBD465DF8047B94
:1006B400704700BF00ED00E0DFF834D00D480E496C
:1006C4000E4A002302E0D458C4500433C4188C42A8
:1006D400F9D30B4A0B4C002301E013600432A2420D
:1006E400FBD3FFF7D7FF00F011F8FFF7CBFF7047FC
:1006F40000000120000000200C00002084070008F6
:100704000C0000202C000020FEE7000070B50D4D09
:100714000D4C641BA4100026A64209D10B4D0C4CB1
:1007240000F018F8641BA4100026A64205D170BD81
:1007340055F8043B98470136EEE755F8043B9847D3
:100744000136F2E77C0700087C0700087C070008F4
:1007540080070008F8B500BFF8BC08BC9E46704787
:0C076400F8B500BFF8BC08BC9E4670470A
:0C0770003F065B4F666D7D077F6F000049
:04077C00B9010008B7
:0407800095010008D7
:0C0784000102030405060708092A0023EF
:04000005080006BD2C
:00000001FF
