:020000040800F2
:100000000000012071030008F9020008FF02000847
:10001000050300080B03000811030008000000009E
:1000200000000000000000000000000017030008AE
:100030002503000800000000330300084103000806
:10004000C1030008C1030008C1030008C103000880
:10005000C1030008C1030008C1030008C103000870
:10006000C1030008C1030008C1030008C103000860
:10007000C1030008C1030008C1030008C103000850
:10008000C1030008C1030008C1030008000000000C
:10009000000000000000000000000000C103000894
:1000A000C1030008C1030008C1030008C103000820
:1000B000C1030008C1030008C1030008C103000810
:1000C000C1030008C1030008C1030008C103000800
:1000D000C1030008C1030008C103000800000000BC
:1000E000C1030008C1030008C103000800000000AC
:1000F000000000000000000000000000C103000834
:1001000000000000C1030008C1030008C10300088B
:1001100000000000000000000000000000000000DF
:10012000C1030008C1030008C1030008C10300089F
:10013000C1030008000000000000000000000000F3
:10014000000000000000000000000000C1030008E3
:10015000C1030008C1030008C1030008C10300086F
:10016000C1030008C10300080000000000000000F7
:10017000000000000000000000000000000000007F
:1001800000000000C10300080000000000000000A3
:04019000C10300089F
:1001940010B5054C237833B9044B13B10448AFF3BD
:1001A40000800123237010BD040000200000000023
:1001B4008807000808B5034B1BB103490348AFF394
:1001C400008008BD00000000080000208807000827
:1001D40080B584B000AF002301220521422000F045
:1001E40003F9002301220621422000F0FDF8002338
:1001F40001220721422000F0F7F801230022032105
:10020400422000F0F1F80321422000F043FA0346B3
:10021400FB8100237B730023FB710023BB7100234C
:100224007B710023BB600CE00321422000F032FA12
:100234000346FB81B7F90E30012B07D0BB680133AD
:10024400BB60BB68294A9342EEDD00E000BFB7F90A
:100254000E30002B02D17B7B01337B737B7B03F05D
:100264000103FB71FB79002B06D1214B5B69204A0A
:1002740023F02003536105E01D4B5B691C4A43F0E6
:10028400200353617B7B03F00203BB71BB79002B1A
:1002940006D1174B5B69164A23F04003536105E00E
:1002A400134B5B69124A43F0400353617B7B03F0B9
:1002B40004037B717B79002B06D10D4B5B690C4ADF
:1002C40023F0800353610CE0094B5B69084A43F057
:1002D4008003536105E00321422000F0DBF903466B
:1002E400FB81B7F90E30002BF5D09AE71FA1070068
:1002F4000004024080B400AFFEE780B400AFFEE724
:1003040080B400AFFEE780B400AFFEE780B400AF76
:10031400FEE780B400AF00BFBD465DF8047B7047C4
:1003240080B400AF00BFBD465DF8047B704780B465
:1003340000AF00BFBD465DF8047B704780B500AFD9
:1003440000F03EF800BF80BD80B400AF064BD3F888
:100354008830054A43F47003C2F8883000BFBD46B4
:100364005DF8047B704700BF00ED00E0DFF834D097
:100374000D480E490E4A002302E0D458C4500433F9
:10038400C4188C42F9D30B4A0B4C002301E01360D0
:100394000432A242FBD3FFF7D7FF00F0CFF9FFF7F7
:1003A40017FF704700000120000000200400002017
:1003B400A80700080400002024000020FEE7000035
:1003C40080B400AF064B1B781A46064B1B681344D7
:1003D400044A136000BFBD465DF8047B704700BF4C
:1003E400000000202000002080B485B000AFB96078
:1003F4007A603B600346FB73FB7B412B03D0422BAB
:1004040000F09D803AE1A04B1B6B9F4A43F001032F
:1004140013637B68032B00F22E8101A252F823F0B0
:1004240035040008BD04000811050008290500086A
:10043400964B1B68BA685200032101FA02F2D243B8
:100444001146924A0B4013603B68012B03D03B6872
:10045400022B18D072E08D4BDB68BA68520003217E
:1004640001FA02F2D2431146884A0B40D360874B0B
:10047400DB68BA685200012101FA02F21146834A8C
:100484000B43D36017E0814BDB68BA685200032149
:1004940001FA02F2D24311467C4A0B40D3607B4BF3
:1004A400DB68BA685200022101FA02F21146774A67
:1004B4000B43D36000BF41E0744B1B68BA68520021
:1004C400012101FA02F21146704A0B4313603B68A2
:1004D400002B03D03B68012B0CD02FE06B4B5B68E7
:1004E4000121BA6801FA02F2D2431146674A0B406D
:1004F40053600AE0654B5B680121BA6801FA02F2B5
:100504001146624A0B43536000BF17E05F4B1B6800
:10051400BA685200022101FA02F211465B4A0B4307
:1005240013600BE0594B1B68BA685200032101FAAF
:1005340002F21146554A0B43136000BF9BE0524B35
:100544001B6B514A43F0020313637B68032B00F2D5
:10055400948001A252F823F06D050008F505000807
:100564004906000861060008494B1B68BA68520036
:10057400032101FA02F2D2431146454A0B401360AB
:100584003B68012B03D03B68022B18D072E0404B30
:10059400DB68BA685200032101FA02F2D243114621
:1005A4003B4A0B40D3603A4BDB68BA6852000121E6
:1005B40001FA02F21146364A0B43D36017E0344B7A
:1005C400DB68BA685200032101FA02F2D2431146F1
:1005D4002F4A0B40D3602E4BDB68BA6852000221CD
:1005E40001FA02F211462A4A0B43D36000BF41E0EC
:1005F400274B1B68BA685200012101FA02F2114626
:10060400234A0B4313603B68002B03D03B68012B48
:100614000CD02FE01E4B5B680121BA6801FA02F28C
:10062400D24311461A4A0B4053600AE0184B5B68E8
:100634000121BA6801FA02F21146154A0B435360CC
:1006440000BF17E0124B1B68BA685200022101FA7E
:1006540002F211460E4A0B4313600BE00C4B1B686D
:10066400BA685200032101FA02F21146084A0B4308
:10067400136000BF01E000BF00E000BF00BF1437FB
:10068400BD465DF8047B704700380240000002401C
:100694000004024080B485B000AF03463960FB71AA
:1006A400FB79412B02D0422B1ED03BE0214B1B682F
:1006B4003A685200032101FA02F21A403B685B00D7
:1006C40022FA03F3002B0CD10023BB73194B1B69D3
:1006D400DAB201213B6801FA03F3DBB21340FB7386
:1006E40020E00123BB731DE0134B1B683A685200E2
:1006F400032101FA02F21A403B685B0022FA03F379
:10070400002B0CD10023BB730B4B1B69DAB2012104
:100714003B6801FA03F3DBB21340FB7301E00123EE
:10072400BB7300BFFB7B18461437BD465DF8047BE2
:10073400704700BF000002400004024070B50D4D38
:100744000D4C641BA4100026A64209D10B4D0C4C81
:1007540000F018F8641BA4100026A64205D170BD51
:1007640055F8043B98470136EEE755F8043B9847A3
:100774000136F2E7A0070008A0070008A007000858
:10078400A4070008F8B500BFF8BC08BC9E46704733
:0C079400F8B500BFF8BC08BC9E467047DA
:0407A000B901000893
:0407A40095010008B3
:0407A800010000004C
:04000005080003717B
:00000001FF
