:020000040800F2
:100000000000012069090008F1080008F70800084D
:10001000FD080008030900080909000800000000A5
:100020000000000000000000000000000F090008B0
:100030001D090008000000002B090008390900080C
:10004000B9090008B9090008B9090008B909000888
:10005000B9090008B9090008B9090008B909000878
:10006000B9090008B9090008B90900089505000890
:10007000B9090008B9090008B9090008B909000858
:10008000B9090008B9090008B90900080000000012
:10009000000000000000000000000000B909000896
:1000A000B9090008B9090008B9090008B909000828
:1000B000B9090008B9090008B9090008B909000818
:1000C000B9090008B9090008B9090008B909000808
:1000D000B9090008B9090008B909000800000000C2
:1000E000B9090008B9090008B909000800000000B2
:1000F000000000000000000000000000B909000836
:1001000000000000B9090008B9090008B909000891
:1001100000000000000000000000000000000000DF
:1001200075050008B9090008B9090008B9090008EF
:10013000B9090008000000000000000000000000F5
:10014000000000000000000000000000B9090008E5
:10015000B9090008B9090008B9090008B909000877
:10016000B9090008B90900080000000000000000FB
:10017000000000000000000000000000000000007F
:1001800000000000B90900080000000000000000A5
:04019000B9090008A1
:1001940010B5054C237833B9044B13B10448AFF3BD
:1001A40000800123237010BD3C00002000000000EB
:1001B4002C0A000808B5034B1BB103490348AFF3ED
:1001C400008008BD00000000400000202C0A000848
:1001D40080B483B000AF78602B4B1B6B2A4A43F486
:1001E4008003136329497A681346DB009B1A9B003A
:1001F4000B441B68196825487A681346DB009B1A70
:100204009B0003441B6821F001021A6000BF1F49D0
:100214007A681346DB009B1A9B000B441B681B681F
:1002240003F00103002BF2D118497A681346DB006E
:100234009B1A9B000B441B68196814487A68134680
:10024400DB009B1A9B0003441B6841F010021A60F8
:100254007B68002B03D07B68012B07D00DE00C4B8F
:100264001B680B4A43F08073136006E0094B1B685C
:10027400084A43F40063136000BF00BF0C37BD4657
:100284005DF8047B704700BF003802400000002086
:1002940004E100E000E100E090B484B000AFF86055
:1002A400B9607A603B607D49FA681346DB009B1AAB
:1002B4009B000B441B6818687B6A5905774CFA68E5
:1002C4001346DB009B1A9B0023441B6840EA01028F
:1002D4001A607249FA681346DB009B1A9B000B44B0
:1002E4001B6819686D48FA681346DB009B1A9B006B
:1002F40003441B6821F0C0021A606849FA68134677
:10030400DB009B1A9B000B441B6818683B6A99012D
:10031400624CFA681346DB009B1A9B0023441B685B
:1003240040EA01021A605D49FA681346DB009B1A31
:100334009B000B4404331B68BA691A605749FA6876
:100344001346DB009B1A9B000B441B681968534837
:10035400FA681346DB009B1A9B0003441B6841F4B4
:1003640000721A604D49FA681346DB009B1A9B0021
:100374000B441B6819684948FA681346DB009B1A4A
:100384009B0003441B6841F480621A604349FA6885
:100394001346DB009B1A9B000B4408331B68186848
:1003A400BB6AD9433D4CFA681346DB009B1A9B0099
:1003B400234408331B6800EA01021A603749FA68CB
:1003C4001346DB009B1A9B000B441B6819683348D7
:1003D400FA681346DB009B1A9B0003441B6821F454
:1003E400C0521A602D49FA681346DB009B1A9B0021
:1003F4000B441B6819682948FA681346DB009B1AEA
:100404009B0003441B6821F4C0421A602349FA6824
:100414001346DB009B1A9B000B441B681868FB699E
:1004240059031E4CFA681346DB009B1A9B002344B5
:100434001B6840EA01021A601849FA681346DB0097
:100444009B1A9B000B441B681868FB69D902134C68
:10045400FA681346DB009B1A9B0023441B6840EA9E
:1004640001021A600D49FA681346DB009B1A9B00CF
:100474000B440C331B687A681A600849FA681346FF
:10048400DB009B1A9B000B4410331B683A681A600C
:1004940000BF1037BD4690BC704700BF000000206D
:1004A40080B483B000AF786022497A681346DB00D9
:1004B4009B1A9B000B4414331B6819681D487A6807
:1004C4001346DB009B1A9B00034414331B6841F062
:1004D40001021A6017497A681346DB009B1A9B00D5
:1004E4000B4414331B68196812487A681346DB00FE
:1004F4009B1A9B00034414331B6841F03C021A60AE
:100504000C497A681346DB009B1A9B000B441B685A
:10051400196808487A681346DB009B1A9B00034459
:100524001B6841F001021A6000BF0C37BD465DF83C
:10053400047B70470000002080B485B000AF786071
:100544000A497A681346DB009B1A9B000B44183354
:100554001B681B685B0903F00103FB60FB6818461A
:100564001437BD465DF8047B704700BF00000020CF
:1005740080B500AF00F066F9044B5B691A68034B61
:100584005B6942F020021A6000BF80BD00000020B9
:1005940080B500AF00F056F9044B1B6B1A68034B8F
:1005A4001B6B42F020021A6000BF80BD00000020D7
:1005B40080B483B000AF0346FB71FB79412B02D0BA
:1005C400422B07D00DE00A4B1B6B094A43F0010391
:1005D400136306E0064B1B6B054A43F002031363E7
:1005E40000BF00BF0C37BD465DF8047B704700BFF9
:1005F4000038024090B482B000AF04460846114669
:100604001A462346FB710346BB710B467B711346A6
:100614003B71FB79412B02D0422B49D091E04B4BEB
:100624001B68BA795200032101FA02F2D24311463F
:10063400464A0B401360454B1B687979BA795200DE
:1006440001FA02F21146414A0B4313603F4B5B68C7
:10065400BA79012101FA02F2D24311463B4A0B4016
:1006640053603A4B5B683A7902F00101BA7901FAB6
:1006740002F21146354A0B435360344BDB68BA79B6
:100684005200032101FA02F2D24311462F4A0B40D1
:10069400D3602E4BDB683A79521002F00301BA7929
:1006A400520001FA02F21146284A0B43D36048E093
:1006B400274B1B68BA795200032101FA02F2D24394
:1006C4001146234A0B401360214B1B687979BA7990
:1006D400520001FA02F211461D4A0B4313601C4BEF
:1006E4005B68BA79012101FA02F2D2431146184A31
:1006F4000B405360164B5B683A7902F00101BA79FA
:1007040001FA02F21146124A0B435360104BDB68A4
:10071400BA795200032101FA02F2D24311460C4A7B
:100724000B40D3600A4BDB683A79521002F00301A4
:10073400BA79520001FA02F21146054A0B43D3601A
:1007440000BF00BF0837BD4690BC704700000240A0
:100754000004024080B485B000AF0346FB710B4631
:10076400BB7113467B71FB79412B02D0422B2DD0F8
:1007740059E0324B1B68BA795200032101FA02F2A4
:100784001A40BB795B0022FA03F3012B1BD17B795E
:10079400002B0AD0294B5B69BA79012101FA02F2D4
:1007A4001146264A0B4353610AE0244B5B69BA792C
:1007B400012101FA02F2D2431146204A0B4053614F
:1007C4000023FB7332E00123FB732FE01C4B1B68F7
:1007D400BA795200032101FA02F21A40BB795B0094
:1007E40022FA03F3012B1BD17B79002B0AD0144B83
:1007F4005B69BA79012101FA02F21146104A0B43EE
:1008040053610AE00E4B5B69BA79012101FA02F2E5
:10081400D24311460A4A0B4053610023FB7305E09F
:100824000123FB7302E00123FB7300BFFB7B18462B
:100834001437BD465DF8047B704700BF00000240DA
:100844000004024080B500AF012200214120FFF7DF
:1008540081FF00BF80BD000080B588B006AF214B8A
:1008640064221A60204B00221A6001237B6012E08C
:100874007B68013B1B4A52F8233003F16402194997
:100884007B6841F82320184A7B68002142F8231032
:100894007B6801337B607B68642BE9DD4120FFF7D3
:1008A40087FE0023012200214120FFF7A3FE002040
:1008B400FFF78EFC03230493002303930223029384
:1008C4000223019364230093074B064A002100206E
:1008D400FFF7E2FC0020FFF7E3FD0020FFF72CFE0A
:1008E4003860FEE7E80100205800002080B400AF23
:1008F400FEE780B400AFFEE780B400AFFEE780B44B
:1009040000AFFEE780B400AFFEE780B400AF00BFE5
:10091400BD465DF8047B704780B400AF00BFBD46A0
:100924005DF8047B704780B400AF00BFBD465DF83E
:10093400047B704780B500AF00F03EF800BF80BD77
:1009440080B400AF064BD3F88830054A43F47003F3
:10095400C2F8883000BFBD465DF8047B704700BF15
:1009640000ED00E0DFF834D00D480E490E4A0023B4
:1009740002E0D458C4500433C4188C42F9D30B4A4F
:100984000B4C002301E013600432A242FBD3FFF7B7
:10099400D7FF00F025F8FFF75FFF70470000012044
:1009A400000000203C0000204C0A00083C0000200D
:1009B4007C030020FEE7000080B400AF064B1B78E8
:1009C4001A46064B1B681344044A136000BFBD4615
:1009D4005DF8047B704700BF3800002078030020D6
:1009E40070B50D4D0D4C641BA4100026A64209D110
:1009F4000B4D0C4C00F018F8641BA4100026A64202
:100A040005D170BD55F8043B98470136EEE755F81B
:100A1400043B98470136F2E7440A0008440A0008F8
:100A2400440A0008480A0008F8B500BFF8BC08BC2E
:100A34009E467047F8B500BFF8BC08BC9E46704798
:040A4400B9010008EC
:040A4800950100080C
:100A4C0010640240146402402464024018640240A2
:100A5C001C640240086402400064024010600240C2
:100A6C001460024024600240186002401C60024086
:0C0A7C0008600240006002400100000021
:04000005080009697D
:00000001FF
