:020000040800F2
:1000000000000120F1020008790200087F020008C8
:10001000850200088B020008910200080000000021
:10002000000000000000000000000000970200082F
:10003000A502000800000000B3020008C102000889
:100040004103000841030008410300084103000880
:100050004103000841030008490200084103000869
:100060004103000841030008410300084103000860
:100070004103000841030008410300084103000850
:10008000410300084103000841030008000000008C
:100090000000000000000000000000004103000814
:1000A0004103000841030008410300084103000820
:1000B0004103000841030008410300084103000810
:1000C0004103000841030008410300084103000800
:1000D000410300084103000841030008000000003C
:1000E000410300084103000841030008000000002C
:1000F00000000000000000000000000041030008B4
:10010000000000004103000841030008410300080B
:1001100000000000000000000000000000000000DF
:10012000410300084103000841030008410300089F
:100130004103000800000000000000000000000073
:100140000000000000000000000000004103000863
:10015000410300084103000841030008410300086F
:1001600041030008410300080000000000000000F7
:10017000000000000000000000000000000000007F
:100180000000000041030008000000000000000023
:04019000410300081F
:1001940010B5054C237833B9044B13B10448AFF3BD
:1001A40000800123237010BD040000200000000023
:1001B4006006000808B5034B1BB103490348AFF3BD
:1001C400008008BD00000000080000206006000850
:1001D40080B500AF012300220021412000F0C4F8C3
:1001E400002301220121412000F0BEF80F4B1B68BF
:1001F4000E4A43F4804313600D4B00221A600D4BEA
:100204001B680C4A43F0010313600B4B00221A6075
:100214000A4B1B68094A43F001031360084B1B682F
:10022400074A43F040031360FEE700BF443802402E
:1002340008380140003C0140083C01400C3C0140AE
:1002440000E100E080B400AF084B1B68074A43F0AC
:1002540001031360064B5B69054A83F00203536193
:1002640000BFBD465DF8047B704700BF143C0140ED
:100274000000024080B400AFFEE780B400AFFEE7A8
:1002840080B400AFFEE780B400AFFEE780B400AFF7
:10029400FEE780B400AF00BFBD465DF8047B704745
:1002A40080B400AF00BFBD465DF8047B704780B4E6
:1002B40000AF00BFBD465DF8047B704780B500AF5A
:1002C40000F03EF800BF80BD80B400AF064BD3F809
:1002D4008830054A43F47003C2F8883000BFBD4635
:1002E4005DF8047B704700BF00ED00E0DFF834D018
:1002F4000D480E490E4A002302E0D458C45004337A
:10030400C4188C42F9D30B4A0B4C002301E0136050
:100314000432A242FBD3FFF7D7FF00F07BF9FFF7CB
:1003240057FF704700000120000000200400002057
:10033400800600080400002024000020FEE70000DE
:1003440080B400AF064B1B781A46064B1B68134457
:10035400044A136000BFBD465DF8047B704700BFCC
:10036400000000202000002080B485B000AFB960F8
:100374007A603B600346FB73FB7B412B03D0422B2B
:1003840000F09D803AE1A04B1B6B9F4A43F00103B0
:1003940013637B68032B00F22E8101A252F823F031
:1003A400B50300083D04000891040008A9040008EE
:1003B400964B1B68BA685200032101FA02F2D24339
:1003C4001146924A0B4013603B68012B03D03B68F3
:1003D400022B18D072E08D4BDB68BA6852000321FF
:1003E40001FA02F2D2431146884A0B40D360874B8C
:1003F400DB68BA685200012101FA02F21146834A0D
:100404000B43D36017E0814BDB68BA6852000321C9
:1004140001FA02F2D24311467C4A0B40D3607B4B73
:10042400DB68BA685200022101FA02F21146774AE7
:100434000B43D36000BF41E0744B1B68BA685200A1
:10044400012101FA02F21146704A0B4313603B6822
:10045400002B03D03B68012B0CD02FE06B4B5B6867
:100464000121BA6801FA02F2D2431146674A0B40ED
:1004740053600AE0654B5B680121BA6801FA02F235
:100484001146624A0B43536000BF17E05F4B1B6881
:10049400BA685200022101FA02F211465B4A0B4388
:1004A40013600BE0594B1B68BA685200032101FA30
:1004B40002F21146554A0B43136000BF9BE0524BB6
:1004C4001B6B514A43F0020313637B68032B00F256
:1004D400948001A252F823F0ED0400087505000889
:1004E400C9050008E1050008494B1B68BA685200B9
:1004F400032101FA02F2D2431146454A0B4013602C
:100504003B68012B03D03B68022B18D072E0404BB0
:10051400DB68BA685200032101FA02F2D2431146A1
:100524003B4A0B40D3603A4BDB68BA685200012166
:1005340001FA02F21146364A0B43D36017E0344BFA
:10054400DB68BA685200032101FA02F2D243114671
:100554002F4A0B40D3602E4BDB68BA68520002214D
:1005640001FA02F211462A4A0B43D36000BF41E06C
:10057400274B1B68BA685200012101FA02F21146A6
:10058400234A0B4313603B68002B03D03B68012BC9
:100594000CD02FE01E4B5B680121BA6801FA02F20D
:1005A400D24311461A4A0B4053600AE0184B5B6869
:1005B4000121BA6801FA02F21146154A0B4353604D
:1005C40000BF17E0124B1B68BA685200022101FAFF
:1005D40002F211460E4A0B4313600BE00C4B1B68EE
:1005E400BA685200032101FA02F21146084A0B4389
:1005F400136000BF01E000BF00E000BF00BF14377C
:10060400BD465DF8047B704700380240000002409C
:100614000004024070B50D4D0D4C641BA41000265F
:10062400A64209D10B4D0C4C00F018F8641BA41021
:100634000026A64205D170BD55F8043B9847013603
:10064400EEE755F8043B98470136F2E778060008D0
:1006540078060008780600087C060008F8B500BF94
:10066400F8BC08BC9E467047F8B500BFF8BC08BC8F
:040674009E467047E7
:04067800B9010008BC
:04067C0095010008DC
:040680000100000075
:04000005080002F1FC
:00000001FF
