:020000040800F2
:100000000000012081030008D1030008D10300088B
:10001000D1030008D1030008D1030008000000004C
:10002000000000000000000000000000D1030008F4
:10003000D103000800000000D1030008D10300082C
:10004000D1030008D1030008D1030008D103000840
:10005000D1030008D1030008D1030008D103000830
:10006000D1030008D1030008D1030008D103000820
:10007000D1030008D1030008D1030008D103000810
:10008000D1030008D1030008D103000800000000DC
:10009000000000000000000000000000D103000884
:1000A000D1030008D1030008D1030008D1030008E0
:1000B000D1030008D1030008D1030008D1030008D0
:1000C000D1030008D1030008D1030008D1030008C0
:1000D000D1030008D1030008D1030008000000008C
:1000E000D1030008D1030008D1030008000000007C
:1000F000000000000000000000000000D103000824
:1001000000000000D1030008D1030008D10300085B
:1001100000000000000000000000000000000000DF
:10012000D1030008D1030008D1030008D10300085F
:10013000D1030008000000000000000000000000E3
:10014000000000000000000000000000D1030008D3
:10015000D1030008D1030008D1030008D10300082F
:10016000D1030008D10300080000000000000000D7
:10017000000000000000000000000000000000007F
:1001800000000000D1030008000000000000000093
:04019000D10300088F
:1001940010B5054C237833B9044B13B10448AFF3BD
:1001A40000800123237010BD000000200000000027
:1001B4001C04000808B5034B1BB103490348AFF303
:1001C400008008BD00000000040000201C0400089A
:1001D40080B485B000AF5D4B1B6B5C4A43F00203F7
:1001E40013635B4B1B685A4A23F0C0031360584BDC
:1001F4001B68574A23F440631360554B1B68544AE9
:1002040023F440531360524B1B68514A23F4404378
:1002140013604F4B1B684E4A43F4806313604C4B8E
:100224001B684B4A43F480531360494B1B68484A8C
:1002340043F480431360464B5B68454A23F0E00374
:100244005360434BDB68424A23F0C003D360404B06
:10025400DB683F4A43F04003D3603D4B1B69DB0836
:100264001BB203F00103FB8100237B730023FB71AA
:100274000023BB7100237B7100233B710023BB600F
:100284000DE0334B1B69DB081BB203F00103FB8158
:10029400B7F90E30012B07D0BB680133BB60BB68D4
:1002A4002C4A9342EDDD00E000BFB7F90E30002B7D
:1002B40002D17B7B01337B737B7B03F00103FB71F6
:1002C400FB79002B06D1224B5B69214A23F02003E2
:1002D400536105E01E4B5B691D4A43F020035361E3
:1002E4007B7B03F00203BB71BB79002B06D1184B57
:1002F4005B69174A23F04003536105E0144B5B69C3
:10030400134A43F0400353617B7B03F004037B7186
:100314007B79002B06D10E4B5B690D4A23F08003D9
:1003240053610DE00A4B5B69094A43F08003536152
:1003340006E0074B1B69DB081BB203F00103FB81DA
:10034400B7F90E30002BF4D098E700BF0038024014
:10035400000402401FA1070080B400AF064BD3F88D
:100364008830054A43F47003C2F8883000BFBD46A4
:100374005DF8047B704700BF00ED00E0DFF834D087
:100384000D480E490E4A002302E0D458C4500433E9
:10039400C4188C42F9D30B4A0B4C002301E01360C0
:1003A4000432A242FBD3FFF7D7FF00F011F8FFF7A6
:1003B4000FFF704700000120000000200000002013
:1003C4003C040008000000201C000020FEE70000A0
:1003D40070B50D4D0D4C641BA4100026A64209D126
:1003E4000B4D0C4C00F018F8641BA4100026A64218
:1003F40005D170BD55F8043B98470136EEE755F832
:10040400043B98470136F2E734040008340400083A
:100414003404000838040008F8B500BFF8BC08BC70
:100424009E467047F8B500BFF8BC08BC9E467047AE
:04043400B901000802
:040438009501000822
:04000005080003816B
:00000001FF
